:0400000300000000F9
:10000000000000010000010C0000000300000C08CB
:100010000000000A0000040C0000000100000300C2
:100020000000000300000C080000000A0000040C9F
:1000300000000000000000000000000100000200BD
:10004000010A0501030102000F0808000E03010860
:10005000050406030603010000000000020004007E
:100060000000000100000304080E0301020E02005C
:100070000B09010604030504060709000E0D0C0414
:10008000080E030B080305040D0609010803050407
:100090000000000801000D080000000C0000050829
:1000A0000000000100000D080000000C00000C0C16
:1000B00000000000000000000000000C00000D0027
:1000C0000000000900000D0C0000000C00000D04F1
:1000D0000000000F00000E000000000B00000800F0
:1000E0000000000100000E000000000F00000D04E1
:1000F0000000000B000008000000000A00000C08CF
:100100000000000100000D040000000600000E04C5
:100110000000000E00000E080000000C00000900A6
:1001200000000000000000000000000100000D00C1
:100130000000000700000E0C0000000C00000D0085
:100140000000000100000C0C0000000F00000F0078
:100150000000000B00000B080000000C00000C0C5D
:100160000000000100000D000000000A0000060071
:100170000000000100000F000000000E0000050854
:100180000000000C000005080000000A0000050047
:100190000000000A00000000000000000000000055
:1001A000000000000000000000000000000000004F
:1001B00000000000000001000000000000000F0C23
:1001C0000000000000000800000000000000040023
:1001D0000000000800000000000200000000000015
:0801E000000000000000000413
:00000001FF
