:04000003000003E80E
:101F400000000001000F0D0C0000000D000F0B043D
:101F50000000000C000F0D0400000001000F0D0434
:101F600000000007000F0E04000000000000000049
:101F70000000000C000F0D0400000001000F0B0416
:101F80000000000E000F0D080000000C000F0B04F5
:101F90000000000F000F0E000000000B000F0A0CE5
:101FA0000000000000000000000000000000000031
:101FB00000000000000000040000000E000F0E08EA
:101FC0000000000E000F0F0C0000000000000000D9
:101FD0000000000000000000000000000000000001
:101FE00000000000000000000000000000000000F1
:101FF00000000000000000000000000000000000E1
:00000001FF
