:0400000300000000F9
:1000000000000008030900000000000800050000CF
:1000100000000008030500000000000801050000C2
:10002000000000080205000000000008020A0000AD
:1000300000000008020E000000000008030100009C
:100040000000000801010000000000080302000099
:10005000000000080306000000000008010D000079
:100060000000000801090000000000080203000071
:10007000000000080201000000000008030A000060
:1000800000000008000D000000000008030D000043
:1000900000000008020D0000000000080209000036
:1000A00000000008010F000000000008030E00001F
:1000B000000000080207000000000008000900001E
:1000C000000000080001000000000008000200001D
:1000D000000000080006000000000008000A000000
:1000E00000000008000E00000000000801020000EF
:1000F000000000080106000000000008010A0000DE
:1001000000000008010E00000000000802020000CC
:1001100000000008020600000000000800070000C0
:1001200000000008000B000000000008000F0000A5
:1001300000000008010300000000000801070000A3
:1001400000000008010B0000000000080003000090
:100150000000000800040000000000080008000083
:1001600000000008000C0000000000080100000072
:100170000000000801040000000000080108000061
:10018000000000080200000000000008030F00004B
:10019000000000080309000000000008000500003E
:1001A0000000000803050000000000080105000031
:1001B000000000080205000000000008020A00001C
:1001C00000000008020E000000000008030100000B
:1001D0000000000801010000000000080302000008
:1001E000000000080306000000000008010D0000E8
:1001F00000000008010900000000000802030000E0
:10020000000000080201000000000008030A0000CE
:1002100000000008000D000000000008030D0000B1
:1002200000000008020D00000000000802090000A4
:1002300000000008010F000000000008030E00008D
:10024000000000080207000000000008000900008C
:10025000000000080001000000000008000200008B
:10026000000000080006000000000008000A00006E
:1002700000000008000E000000000008010200005D
:10028000000000080106000000000008010A00004C
:1002900000000008010E000000000008020200003B
:1002A000000000080206000000000008000700002F
:1002B00000000008000B000000000008000F000014
:1002C0000000000801030000000000080107000012
:0802D00000000008010B000012
:00000001FF
