:0400000300000000F9
:1000000000000001010F04000000000C010F0404B7
:100010000000000D010F04080000000E010F040C89
:100020000000000F010F050000000007010F05048C
:1000300000000006010F050800000005010F050C77
:1000400000000009010F060000000002010F060475
:1000500000000003010F06080000000A010F060C53
:100060000000000B010F070000000000020000006C
:100070000000000800030000000000040000000071
:00000001FF
