:0400000300000000F9
:10000000030204030F060B040600000000000000BA
:100010000A000000000000000000000300000000D3
:100020000F0F0F0D00000000000000000000000C8A
:100030000F0F0F0F0F0F0F04020F0A0F0008000021
:100040000D0005000F080000070000000000000080
:100050000900000000000000000000000E00000089
:100060000F0F0F0F02000000000000000000000052
:100070000F0F0F0F0F0F0F0E060000000000000003
:080080000D0005000F0800004F
:00000001FF
